{
  "_format": "hh-sol-artifact-1",
  "contractName": "UniswapV3Factory",
  "sourceName": "contracts/core/UniswapV3Factory.sol",
  "abi": [
    {
      "inputs": [
        {
          "internalType": "address",
          "name": "_voter",
          "type": "address"
        },
        {
          "internalType": "address",
          "name": "_poolImplementation",
          "type": "address"
        }
      ],
      "stateMutability": "nonpayable",
      "type": "constructor"
    },
    {
      "anonymous": false,
      "inputs": [
        {
          "indexed": true,
          "internalType": "address",
          "name": "oldOwner",
          "type": "address"
        },
        {
          "indexed": true,
          "internalType": "address",
          "name": "newOwner",
          "type": "address"
        }
      ],
      "name": "OwnerChanged",
      "type": "event"
    },
    {
      "anonymous": false,
      "inputs": [
        {
          "indexed": true,
          "internalType": "address",
          "name": "token0",
          "type": "address"
        },
        {
          "indexed": true,
          "internalType": "address",
          "name": "token1",
          "type": "address"
        },
        {
          "indexed": true,
          "internalType": "int24",
          "name": "tickSpacing",
          "type": "int24"
        },
        {
          "indexed": false,
          "internalType": "address",
          "name": "pool",
          "type": "address"
        }
      ],
      "name": "PoolCreated",
      "type": "event"
    },
    {
      "anonymous": false,
      "inputs": [
        {
          "indexed": true,
          "internalType": "address",
          "name": "oldFeeManager",
          "type": "address"
        },
        {
          "indexed": true,
          "internalType": "address",
          "name": "newFeeManager",
          "type": "address"
        }
      ],
      "name": "SwapFeeManagerChanged",
      "type": "event"
    },
    {
      "anonymous": false,
      "inputs": [
        {
          "indexed": true,
          "internalType": "address",
          "name": "oldFeeModule",
          "type": "address"
        },
        {
          "indexed": true,
          "internalType": "address",
          "name": "newFeeModule",
          "type": "address"
        }
      ],
      "name": "SwapFeeModuleChanged",
      "type": "event"
    },
    {
      "anonymous": false,
      "inputs": [
        {
          "indexed": true,
          "internalType": "int24",
          "name": "tickSpacing",
          "type": "int24"
        },
        {
          "indexed": true,
          "internalType": "uint24",
          "name": "fee",
          "type": "uint24"
        }
      ],
      "name": "TickSpacingEnabled",
      "type": "event"
    },
    {
      "anonymous": false,
      "inputs": [
        {
          "indexed": true,
          "internalType": "address",
          "name": "oldFeeManager",
          "type": "address"
        },
        {
          "indexed": true,
          "internalType": "address",
          "name": "newFeeManager",
          "type": "address"
        }
      ],
      "name": "UnstakedFeeManagerChanged",
      "type": "event"
    },
    {
      "anonymous": false,
      "inputs": [
        {
          "indexed": true,
          "internalType": "address",
          "name": "oldFeeModule",
          "type": "address"
        },
        {
          "indexed": true,
          "internalType": "address",
          "name": "newFeeModule",
          "type": "address"
        }
      ],
      "name": "UnstakedFeeModuleChanged",
      "type": "event"
    },
    {
      "inputs": [
        {
          "internalType": "address",
          "name": "tokenA",
          "type": "address"
        },
        {
          "internalType": "address",
          "name": "tokenB",
          "type": "address"
        },
        {
          "internalType": "int24",
          "name": "tickSpacing",
          "type": "int24"
        },
        {
          "internalType": "uint160",
          "name": "sqrtPriceX96",
          "type": "uint160"
        }
      ],
      "name": "createPool",
      "outputs": [
        {
          "internalType": "address",
          "name": "pool",
          "type": "address"
        }
      ],
      "stateMutability": "nonpayable",
      "type": "function"
    },
    {
      "inputs": [
        {
          "internalType": "int24",
          "name": "tickSpacing",
          "type": "int24"
        },
        {
          "internalType": "uint24",
          "name": "fee",
          "type": "uint24"
        }
      ],
      "name": "enableTickSpacing",
      "outputs": [],
      "stateMutability": "nonpayable",
      "type": "function"
    },
    {
      "inputs": [],
      "name": "gaugeFactory",
      "outputs": [
        {
          "internalType": "address",
          "name": "",
          "type": "address"
        }
      ],
      "stateMutability": "view",
      "type": "function"
    },
    {
      "inputs": [],
      "name": "gaugeImplementation",
      "outputs": [
        {
          "internalType": "address",
          "name": "",
          "type": "address"
        }
      ],
      "stateMutability": "view",
      "type": "function"
    },
    {
      "inputs": [
        {
          "internalType": "address",
          "name": "",
          "type": "address"
        },
        {
          "internalType": "address",
          "name": "",
          "type": "address"
        },
        {
          "internalType": "int24",
          "name": "",
          "type": "int24"
        }
      ],
      "name": "getPool",
      "outputs": [
        {
          "internalType": "address",
          "name": "",
          "type": "address"
        }
      ],
      "stateMutability": "view",
      "type": "function"
    },
    {
      "inputs": [
        {
          "internalType": "address",
          "name": "pool",
          "type": "address"
        }
      ],
      "name": "getSwapFee",
      "outputs": [
        {
          "internalType": "uint24",
          "name": "",
          "type": "uint24"
        }
      ],
      "stateMutability": "view",
      "type": "function"
    },
    {
      "inputs": [
        {
          "internalType": "address",
          "name": "pool",
          "type": "address"
        }
      ],
      "name": "getUnstakedFee",
      "outputs": [
        {
          "internalType": "uint24",
          "name": "",
          "type": "uint24"
        }
      ],
      "stateMutability": "view",
      "type": "function"
    },
    {
      "inputs": [
        {
          "internalType": "address",
          "name": "pool",
          "type": "address"
        }
      ],
      "name": "isPair",
      "outputs": [
        {
          "internalType": "bool",
          "name": "",
          "type": "bool"
        }
      ],
      "stateMutability": "view",
      "type": "function"
    },
    {
      "inputs": [],
      "name": "nft",
      "outputs": [
        {
          "internalType": "address",
          "name": "",
          "type": "address"
        }
      ],
      "stateMutability": "view",
      "type": "function"
    },
    {
      "inputs": [],
      "name": "owner",
      "outputs": [
        {
          "internalType": "address",
          "name": "",
          "type": "address"
        }
      ],
      "stateMutability": "view",
      "type": "function"
    },
    {
      "inputs": [],
      "name": "poolImplementation",
      "outputs": [
        {
          "internalType": "address",
          "name": "",
          "type": "address"
        }
      ],
      "stateMutability": "view",
      "type": "function"
    },
    {
      "inputs": [
        {
          "internalType": "address",
          "name": "_gaugeFactory",
          "type": "address"
        },
        {
          "internalType": "address",
          "name": "_gaugeImplementation",
          "type": "address"
        }
      ],
      "name": "setGaugeFactory",
      "outputs": [],
      "stateMutability": "nonpayable",
      "type": "function"
    },
    {
      "inputs": [
        {
          "internalType": "address",
          "name": "_nft",
          "type": "address"
        }
      ],
      "name": "setNonfungiblePositionManager",
      "outputs": [],
      "stateMutability": "nonpayable",
      "type": "function"
    },
    {
      "inputs": [
        {
          "internalType": "address",
          "name": "_owner",
          "type": "address"
        }
      ],
      "name": "setOwner",
      "outputs": [],
      "stateMutability": "nonpayable",
      "type": "function"
    },
    {
      "inputs": [
        {
          "internalType": "address",
          "name": "_swapFeeManager",
          "type": "address"
        }
      ],
      "name": "setSwapFeeManager",
      "outputs": [],
      "stateMutability": "nonpayable",
      "type": "function"
    },
    {
      "inputs": [
        {
          "internalType": "address",
          "name": "_swapFeeModule",
          "type": "address"
        }
      ],
      "name": "setSwapFeeModule",
      "outputs": [],
      "stateMutability": "nonpayable",
      "type": "function"
    },
    {
      "inputs": [
        {
          "internalType": "address",
          "name": "_unstakedFeeManager",
          "type": "address"
        }
      ],
      "name": "setUnstakedFeeManager",
      "outputs": [],
      "stateMutability": "nonpayable",
      "type": "function"
    },
    {
      "inputs": [
        {
          "internalType": "address",
          "name": "_unstakedFeeModule",
          "type": "address"
        }
      ],
      "name": "setUnstakedFeeModule",
      "outputs": [],
      "stateMutability": "nonpayable",
      "type": "function"
    },
    {
      "inputs": [],
      "name": "swapFeeManager",
      "outputs": [
        {
          "internalType": "address",
          "name": "",
          "type": "address"
        }
      ],
      "stateMutability": "view",
      "type": "function"
    },
    {
      "inputs": [],
      "name": "swapFeeModule",
      "outputs": [
        {
          "internalType": "address",
          "name": "",
          "type": "address"
        }
      ],
      "stateMutability": "view",
      "type": "function"
    },
    {
      "inputs": [
        {
          "internalType": "int24",
          "name": "",
          "type": "int24"
        }
      ],
      "name": "tickSpacingToFee",
      "outputs": [
        {
          "internalType": "uint24",
          "name": "",
          "type": "uint24"
        }
      ],
      "stateMutability": "view",
      "type": "function"
    },
    {
      "inputs": [],
      "name": "tickSpacings",
      "outputs": [
        {
          "internalType": "int24[]",
          "name": "",
          "type": "int24[]"
        }
      ],
      "stateMutability": "view",
      "type": "function"
    },
    {
      "inputs": [],
      "name": "unstakedFeeManager",
      "outputs": [
        {
          "internalType": "address",
          "name": "",
          "type": "address"
        }
      ],
      "stateMutability": "view",
      "type": "function"
    },
    {
      "inputs": [],
      "name": "unstakedFeeModule",
      "outputs": [
        {
          "internalType": "address",
          "name": "",
          "type": "address"
        }
      ],
      "stateMutability": "view",
      "type": "function"
    },
    {
      "inputs": [],
      "name": "voter",
      "outputs": [
        {
          "internalType": "contract IVoter",
          "name": "",
          "type": "address"
        }
      ],
      "stateMutability": "view",
      "type": "function"
    }
  ],
  "bytecode": "0x60c060405234801561001057600080fd5b506040516116673803806116678339818101604052604081101561003357600080fd5b508051602090910151600580546001600160a01b0319908116339081179092556000805482168317815560068054831684179055600180548316841790556003805490921683179091556001600160601b0319606085811b821660805284901b1660a0526040517fb532073b38c83145e3e5135377a08bf9aab55bc0fd7c1179cd4fb995d2a5159c908290a360405133906000907f7ae0007229b3333719d97e8ef5829c888f560776012974f87409c158e5b7eb91908290a360405133906000907f3d7ebe96182c99643ca0c997a416a2a3409baab225f85f50c29fcf0591c820c1908290a360086020527fad67d757c34507f157cacfa2e3153e9f260a2244f30428821be7be64587ac55f805462ffffff19166064908117909155600b8054600181810183556000928352600a808304600080516020611647833981519152018054600392909406919091026101000a62ffffff810219909316909217909155604051909160008051602061162783398151915291a360086020527f23b5ab645f31928abe726ce7b7126a2542fcc1d311984b6f25c332fb67abf9ad805462ffffff19166101f4908117909155600b80546001810182556000918252600a808204600080516020611647833981519152018054600392909306919091026101000a603281810262ffffff9290920219909316179055604051909160008051602061162783398151915291a360086020527fffce496b4ceda4229449aa05397e44a9af6706b3864aaa0c63ac1ad144e65a79805462ffffff19166101f4908117909155600b80546001810182556000918252600a808204600080516020611647833981519152018054600392909306919091026101000a606481810262ffffff9290920219909316179055604051909160008051602061162783398151915291a360086020527f77c2fa0b3c762c1ce6ad2b4a4fe5aa667a490a482e44158e8a48356c999fc074805462ffffff1916610bb8908117909155600b80546001810182556000918252600a808204600080516020611647833981519152018054600392909306919091026101000a60c881810262ffffff9290920219909316179055604051909160008051602061162783398151915291a360086020527f1591a047e545f3c847da7c7c1cee19f1f668de4fb3e3cb92fc266d9312dd832f805462ffffff1916612710908117909155600b80546001810182556000918252600a808204600080516020611647833981519152018054600392909306919091026101000a6107d081810262ffffff9290920219909316179055604051909160008051602061162783398151915291a3505060805160601c60a05160601c6111f3610434600039806106d95280610ee45250806109035280610b7a52506111f36000f3fe608060405234801561001057600080fd5b50600436106101735760003560e01c80637693bc11116100de578063cb8451ef11610097578063e5e31b1311610071578063e5e31b131461041e578063eda5458a14610458578063eee0fdb414610460578063ffb4d9d11461048b57610173565b8063cb8451ef146103e8578063cefa77991461040e578063d574afa91461041657610173565b80637693bc111461032457806382e189e01461032c5780638da5cb5b1461033457806393ce86271461033c5780639cbbbe8614610362578063b4a9dec1146103ba57610173565b806335458dcc1161013057806335458dcc1461026a578063380dc1c2146102a857806346c96aac146102c857806347ccca02146102d057806348cf7a43146102d857806361b9c3ec146102fe57610173565b80630d52333c1461017857806313af40351461019c5780631b31d878146101c4578063232aa5ac146101ea57806323c43a511461022957806328af8d0b14610231575b600080fd5b6101806104b1565b604080516001600160a01b039092168252519081900360200190f35b6101c2600480360360208110156101b257600080fd5b50356001600160a01b03166104c0565b005b6101c2600480360360208110156101da57600080fd5b50356001600160a01b0316610545565b6101806004803603608081101561020057600080fd5b506001600160a01b0381358116916020810135821691604082013560020b9160600135166105c1565b610180610a04565b6101806004803603606081101561024757600080fd5b506001600160a01b0381358116916020810135909116906040013560020b610a13565b6102906004803603602081101561028057600080fd5b50356001600160a01b0316610a3f565b6040805162ffffff9092168252519081900360200190f35b610290600480360360208110156102be57600080fd5b503560020b610b61565b610180610b78565b610180610b9c565b610290600480360360208110156102ee57600080fd5b50356001600160a01b0316610bab565b6101c26004803603602081101561031457600080fd5b50356001600160a01b0316610c2b565b610180610ca7565b610180610cb6565b610180610cc5565b6101c26004803603602081101561035257600080fd5b50356001600160a01b0316610cd4565b61036a610d50565b60408051602080825283518183015283519192839290830191858101910280838360005b838110156103a657818101518382015260200161038e565b505050509050019250505060405180910390f35b6101c2600480360360408110156103d057600080fd5b506001600160a01b0381358116916020013516610dce565b6101c2600480360360208110156103fe57600080fd5b50356001600160a01b0316610e69565b610180610ee2565b610180610f06565b6104446004803603602081101561043457600080fd5b50356001600160a01b0316610f15565b604080519115158252519081900360200190f35b610180610f33565b6101c26004803603604081101561047657600080fd5b50803560020b906020013562ffffff16610f42565b6101c2600480360360208110156104a157600080fd5b50356001600160a01b0316611061565b6006546001600160a01b031681565b6000546001600160a01b031633146104d757600080fd5b6001600160a01b0381166104ea57600080fd5b600080546040516001600160a01b03808516939216917fb532073b38c83145e3e5135377a08bf9aab55bc0fd7c1179cd4fb995d2a5159c91a3600080546001600160a01b0319166001600160a01b0392909216919091179055565b6003546001600160a01b0316331461055c57600080fd5b6001600160a01b03811661056f57600080fd5b600480546001600160a01b038381166001600160a01b0319831681179093556040519116919082907f6520f404f3831947cee8673060459cdfb181b7332aa7580bcce9bf90ef1f0e2090600090a35050565b6000836001600160a01b0316856001600160a01b031614156105e257600080fd5b600080856001600160a01b0316876001600160a01b031610610605578587610608565b86865b90925090506001600160a01b03821661062057600080fd5b600285810b900b60009081526008602052604090205462ffffff1661064457600080fd5b6001600160a01b0382811660009081526009602090815260408083208585168452825280832060028a810b900b8452909152902054161561068457600080fd5b600082828760405160200180846001600160a01b03168152602001836001600160a01b031681526020018260020b815260200193505050506040516020818303038152906040528051906020012090506106fe7f0000000000000000000000000000000000000000000000000000000000000000826110dd565b600754600654919550600091610722916001600160a01b0390811691859116611188565b60055460408051630200088d60e21b81523060048201526001600160a01b038881166024830152878116604483015260028c900b6064830152808516608483015292831660a482015289831660c482015290519293509087169163080022349160e48082019260009290919082900301818387803b1580156107a357600080fd5b505af11580156107b7573d6000803e3d6000fd5b505050506001600a6000876001600160a01b03166001600160a01b0316815260200190815260200160002060006101000a81548160ff0219169083151502179055508460096000866001600160a01b03166001600160a01b031681526020019081526020016000206000856001600160a01b03166001600160a01b0316815260200190815260200160002060008960020b60020b815260200190815260200160002060006101000a8154816001600160a01b0302191690836001600160a01b031602179055508460096000856001600160a01b03166001600160a01b031681526020019081526020016000206000866001600160a01b03166001600160a01b0316815260200190815260200160002060008960020b60020b815260200190815260200160002060006101000a8154816001600160a01b0302191690836001600160a01b031602179055507f00000000000000000000000000000000000000000000000000000000000000006001600160a01b031663794cea3c30876040518363ffffffff1660e01b815260040180836001600160a01b03168152602001826001600160a01b0316815260200192505050602060405180830381600087803b15801561098157600080fd5b505af1158015610995573d6000803e3d6000fd5b505050506040513d60208110156109ab57600080fd5b5050604080516001600160a01b038781168252915160028a900b9280871692908816917fab0d57f0df537bb25e80245ef7748fa62353808c54d6e528a9dd20887aed9ac29181900360200190a450505050949350505050565b6002546001600160a01b031681565b60096020908152600093845260408085208252928452828420905282529020546001600160a01b031681565b6002546000906001600160a01b031615610ad35760025460408051631711922960e31b81526001600160a01b0385811660048301529151919092169163b88c9148916024808301926020929190829003018186803b158015610aa057600080fd5b505afa158015610ab4573d6000803e3d6000fd5b505050506040513d6020811015610aca57600080fd5b50519050610b5c565b60086000836001600160a01b031663d0c93a7c6040518163ffffffff1660e01b815260040160206040518083038186803b158015610b1057600080fd5b505afa158015610b24573d6000803e3d6000fd5b505050506040513d6020811015610b3a57600080fd5b5051600290810b900b815260208101919091526040016000205462ffffff1690505b919050565b60086020526000908152604090205462ffffff1681565b7f000000000000000000000000000000000000000000000000000000000000000081565b6005546001600160a01b031681565b6004546000906001600160a01b031615610c2157600460009054906101000a90046001600160a01b03166001600160a01b031663b88c9148836040518263ffffffff1660e01b815260040180826001600160a01b0316815260200191505060206040518083038186803b158015610aa057600080fd5b50620186a0610b5c565b6001546001600160a01b03163314610c4257600080fd5b6001600160a01b038116610c5557600080fd5b600280546001600160a01b038381166001600160a01b0319831681179093556040519116919082907fdf24ed64a7bcd761cf1132e79f94ea269a1d570e7a6ca0ab99a8f5ccd6f5022f90600090a35050565b6004546001600160a01b031681565b6003546001600160a01b031681565b6000546001600160a01b031681565b6003546001600160a01b03163314610ceb57600080fd5b6001600160a01b038116610cfe57600080fd5b600380546001600160a01b038381166001600160a01b0319831681179093556040519116919082907f3d7ebe96182c99643ca0c997a416a2a3409baab225f85f50c29fcf0591c820c190600090a35050565b6060600b805480602002602001604051908101604052809291908181526020018280548015610dc457602002820191906000526020600020906000905b82829054906101000a900460020b60020b81526020019060030190602082600201049283019260010382029150808411610d8d5790505b5050505050905090565b6006546001600160a01b03163314610e12576040805162461bcd60e51b8152602060048201526002602482015261414960f01b604482015290519081900360640190fd5b6001600160a01b03821615801590610e3257506001600160a01b03811615155b610e3b57600080fd5b600680546001600160a01b039384166001600160a01b03199182161790915560078054929093169116179055565b6005546001600160a01b03163314610ead576040805162461bcd60e51b8152602060048201526002602482015261414960f01b604482015290519081900360640190fd5b6001600160a01b038116610ec057600080fd5b600580546001600160a01b0319166001600160a01b0392909216919091179055565b7f000000000000000000000000000000000000000000000000000000000000000081565b6001546001600160a01b031681565b6001600160a01b03166000908152600a602052604090205460ff1690565b6007546001600160a01b031681565b6000546001600160a01b03163314610f5957600080fd5b620186a08162ffffff161115610f6e57600080fd5b60008260020b138015610f8557506140008260020b125b610f8e57600080fd5b600282810b900b60009081526008602052604090205462ffffff1615610fb357600080fd5b600282810b9081900b600090815260086020526040808220805462ffffff80871662ffffff199092168217909255600b8054600181018255908552600a8082047f0175b7a638427703f0dbe7bb9bbf987a2551717b34e79f33b5b1008d1fa01db9018054858916600393909406929092026101000a9283029290940219161790915590519092917febafae466a4a780a1d87f5fab2f52fad33be9151a7f69d099e8934c8de85b74791a35050565b6001546001600160a01b0316331461107857600080fd5b6001600160a01b03811661108b57600080fd5b600180546001600160a01b038381166001600160a01b0319831681179093556040519116919082907f7ae0007229b3333719d97e8ef5829c888f560776012974f87409c158e5b7eb9190600090a35050565b6000604051733d602d80600a3d3981f3363d3d373d3d3d363d7360601b81528360601b60148201526e5af43d82803e903d91602b57fd5bf360881b6028820152826037826000f59150506001600160a01b038116611182576040805162461bcd60e51b815260206004820152601760248201527f455243313136373a2063726561746532206661696c6564000000000000000000604482015290519081900360640190fd5b92915050565b604051733d602d80600a3d3981f3363d3d373d3d3d363d7360601b8152606093841b60148201526f5af43d82803e903d91602b57fd5bf3ff60801b6028820152921b6038830152604c8201526037808220606c83015260559101209056fea164736f6c6343000706000aebafae466a4a780a1d87f5fab2f52fad33be9151a7f69d099e8934c8de85b7470175b7a638427703f0dbe7bb9bbf987a2551717b34e79f33b5b1008d1fa01db9",
  "linkReferences": {},
  "deployedLinkReferences": {}
}